{
  "contractName": "Purchase",
  "abi": [
    {
      "constant": true,
      "inputs": [],
      "name": "seller",
      "outputs": [
        {
          "name": "",
          "type": "address"
        }
      ],
      "payable": false,
      "stateMutability": "view",
      "type": "function"
    },
    {
      "constant": true,
      "inputs": [],
      "name": "value",
      "outputs": [
        {
          "name": "",
          "type": "uint256"
        }
      ],
      "payable": false,
      "stateMutability": "view",
      "type": "function"
    },
    {
      "constant": true,
      "inputs": [],
      "name": "buyer",
      "outputs": [
        {
          "name": "",
          "type": "address"
        }
      ],
      "payable": false,
      "stateMutability": "view",
      "type": "function"
    },
    {
      "constant": true,
      "inputs": [],
      "name": "state",
      "outputs": [
        {
          "name": "",
          "type": "uint8"
        }
      ],
      "payable": false,
      "stateMutability": "view",
      "type": "function"
    },
    {
      "inputs": [],
      "payable": true,
      "stateMutability": "payable",
      "type": "constructor"
    },
    {
      "anonymous": false,
      "inputs": [],
      "name": "Aborted",
      "type": "event"
    },
    {
      "anonymous": false,
      "inputs": [],
      "name": "PurchaseConfirmed",
      "type": "event"
    },
    {
      "anonymous": false,
      "inputs": [],
      "name": "ItemReceived",
      "type": "event"
    },
    {
      "constant": false,
      "inputs": [],
      "name": "abort",
      "outputs": [],
      "payable": false,
      "stateMutability": "nonpayable",
      "type": "function"
    },
    {
      "constant": false,
      "inputs": [],
      "name": "confirmPurchase",
      "outputs": [],
      "payable": true,
      "stateMutability": "payable",
      "type": "function"
    },
    {
      "constant": false,
      "inputs": [],
      "name": "confirmReceived",
      "outputs": [],
      "payable": false,
      "stateMutability": "nonpayable",
      "type": "function"
    }
  ],
  "bytecode": "0x608060405233600160006101000a81548173ffffffffffffffffffffffffffffffffffffffff021916908373ffffffffffffffffffffffffffffffffffffffff1602179055506002348161004f57fe5b0460008190555034600054600202146100d0576040517f08c379a00000000000000000000000000000000000000000000000000000000081526004018080602001828103825260158152602001807f56616c75652068617320746f206265206576656e2e000000000000000000000081525060200191505060405180910390fd5b610860806100df6000396000f3fe6080604052600436106100705760003560e01c80637150d8ae1161004e5780637150d8ae1461010e57806373fac6f014610165578063c19d93fb1461017c578063d6960697146101b557610070565b806308551a531461007557806335a063b4146100cc5780633fa4f245146100e3575b600080fd5b34801561008157600080fd5b5061008a6101bf565b604051808273ffffffffffffffffffffffffffffffffffffffff1673ffffffffffffffffffffffffffffffffffffffff16815260200191505060405180910390f35b3480156100d857600080fd5b506100e16101e5565b005b3480156100ef57600080fd5b506100f8610416565b6040518082815260200191505060405180910390f35b34801561011a57600080fd5b5061012361041c565b604051808273ffffffffffffffffffffffffffffffffffffffff1673ffffffffffffffffffffffffffffffffffffffff16815260200191505060405180910390f35b34801561017157600080fd5b5061017a610442565b005b34801561018857600080fd5b506101916106de565b604051808260028111156101a157fe5b60ff16815260200191505060405180910390f35b6101bd6106f1565b005b600160009054906101000a900473ffffffffffffffffffffffffffffffffffffffff1681565b600160009054906101000a900473ffffffffffffffffffffffffffffffffffffffff1673ffffffffffffffffffffffffffffffffffffffff163373ffffffffffffffffffffffffffffffffffffffff16146102a8576040517f08c379a000000000000000000000000000000000000000000000000000000000815260040180806020018281038252601a8152602001807f4f6e6c792073656c6c65722063616e2063616c6c20746869732e00000000000081525060200191505060405180910390fd5b60008060028111156102b657fe5b600260149054906101000a900460ff1660028111156102d157fe5b14610344576040517f08c379a000000000000000000000000000000000000000000000000000000000815260040180806020018281038252600e8152602001807f496e76616c69642073746174652e00000000000000000000000000000000000081525060200191505060405180910390fd5b7f72c874aeff0b183a56e2b79c71b46e1aed4dee5e09862134b8821ba2fddbf8bf60405160405180910390a160028060146101000a81548160ff0219169083600281111561038e57fe5b0217905550600160009054906101000a900473ffffffffffffffffffffffffffffffffffffffff1673ffffffffffffffffffffffffffffffffffffffff166108fc3073ffffffffffffffffffffffffffffffffffffffff16319081150290604051600060405180830381858888f19350505050158015610412573d6000803e3d6000fd5b5050565b60005481565b600260009054906101000a900473ffffffffffffffffffffffffffffffffffffffff1681565b600260009054906101000a900473ffffffffffffffffffffffffffffffffffffffff1673ffffffffffffffffffffffffffffffffffffffff163373ffffffffffffffffffffffffffffffffffffffff1614610505576040517f08c379a00000000000000000000000000000000000000000000000000000000081526004018080602001828103825260198152602001807f4f6e6c792062757965722063616e2063616c6c20746869732e0000000000000081525060200191505060405180910390fd5b600180600281111561051357fe5b600260149054906101000a900460ff16600281111561052e57fe5b146105a1576040517f08c379a000000000000000000000000000000000000000000000000000000000815260040180806020018281038252600e8152602001807f496e76616c69642073746174652e00000000000000000000000000000000000081525060200191505060405180910390fd5b7fe89152acd703c9d8c7d28829d443260b411454d45394e7995815140c8cbcbcf760405160405180910390a160028060146101000a81548160ff021916908360028111156105eb57fe5b0217905550600260009054906101000a900473ffffffffffffffffffffffffffffffffffffffff1673ffffffffffffffffffffffffffffffffffffffff166108fc6000549081150290604051600060405180830381858888f1935050505015801561065a573d6000803e3d6000fd5b50600160009054906101000a900473ffffffffffffffffffffffffffffffffffffffff1673ffffffffffffffffffffffffffffffffffffffff166108fc3073ffffffffffffffffffffffffffffffffffffffff16319081150290604051600060405180830381858888f193505050501580156106da573d6000803e3d6000fd5b5050565b600260149054906101000a900460ff1681565b60008060028111156106ff57fe5b600260149054906101000a900460ff16600281111561071a57fe5b1461078d576040517f08c379a000000000000000000000000000000000000000000000000000000000815260040180806020018281038252600e8152602001807f496e76616c69642073746174652e00000000000000000000000000000000000081525060200191505060405180910390fd5b60005460020234148061079f57600080fd5b7fd5d55c8a68912e9a110618df8d5e2e83b8d83211c57a8ddd1203df92885dc88160405160405180910390a133600260006101000a81548173ffffffffffffffffffffffffffffffffffffffff021916908373ffffffffffffffffffffffffffffffffffffffff1602179055506001600260146101000a81548160ff0219169083600281111561082b57fe5b0217905550505056fea165627a7a72305820bbe64cae0217236dca94e10ebb2bc8b7c37001817391f7c6ce3cdbd4e1c767a70029",
  "source": "pragma solidity >=0.4.22 <0.7.0;\r\n\r\ncontract Purchase {\r\n\t\r\n\tuint public value;\r\n\taddress payable public seller;\r\n\taddress payable public buyer;\r\n\tenum State {Created, Locked, Inactive}\r\n\r\n\tState public state;\r\n\r\n\tconstructor() public payable {\r\n\t\tseller = msg.sender;\r\n\t\tvalue = msg.value / 2;\r\n\t\trequire((2 * value) == msg.value, \"Value has to be even.\");\r\n\t}\r\n\r\n\tmodifier condition (bool _condition){\r\n\t\trequire(_condition);\r\n\t\t_;\r\n\t}\r\n\r\n\tmodifier onlyBuyer(){\r\n\t\trequire( msg.sender == buyer, \"Only buyer can call this.\");\r\n\t\t_;\r\n\t}\r\n\r\n\tmodifier onlySeller(){\r\n\t\trequire( msg.sender == seller, \"Only seller can call this.\");\r\n\t\t_;\r\n\t}\r\n\r\n\tmodifier inState(State _state){\r\n\t\trequire( state == _state, \"Invalid state.\");\r\n\t\t_;\r\n\t}\r\n\r\n\tevent Aborted();\r\n\tevent PurchaseConfirmed();\r\n\tevent ItemReceived();\r\n\r\n\tfunction abort() public onlySeller inState(State.Created){\r\n\t\temit Aborted();\r\n\t\tstate = State.Inactive;\r\n\t\tseller.transfer(address(this).balance);\r\n\t}\r\n\r\n\tfunction confirmPurchase() public inState(State.Created) condition(msg.value ==(2 * value)) payable {\r\n\t\temit PurchaseConfirmed();\r\n\t\tbuyer = msg.sender;\r\n\t\tstate = State.Locked;\r\n\t}\r\n\r\n\tfunction confirmReceived() public onlyBuyer inState(State.Locked) {\r\n\t\temit ItemReceived();\r\n\t\tstate = State.Inactive;\r\n\t\tbuyer.transfer(value);\r\n\t\tseller.transfer(address(this).balance);\r\n\t}\r\n}",
  "sourcePath": "U:/NTProfil.V2/projects/TestDevEnv/SolidityExamples/Purchase/contracts/Purchase.sol",
  "compiler": {
    "name": "solc",
    "version": "0.5.8+commit.23d335f2.Emscripten.clang"
  },
  "schemaVersion": "3.0.11",
  "updatedAt": "2019-07-16T09:03:50.582Z",
  "devdoc": {
    "methods": {}
  },
  "userdoc": {
    "methods": {}
  }
}